{
  "_format": "hh-sol-artifact-1",
  "contractName": "SmartEnergy",
  "sourceName": "contracts/smartenergy.sol",
  "abi": [
    {
      "anonymous": false,
      "inputs": [
        {
          "indexed": true,
          "internalType": "uint256",
          "name": "billId",
          "type": "uint256"
        },
        {
          "indexed": true,
          "internalType": "address",
          "name": "sender",
          "type": "address"
        },
        {
          "indexed": false,
          "internalType": "uint256",
          "name": "amountPaid",
          "type": "uint256"
        }
      ],
      "name": "BillPaid",
      "type": "event"
    },
    {
      "inputs": [
        {
          "internalType": "uint256",
          "name": "",
          "type": "uint256"
        }
      ],
      "name": "energyBills",
      "outputs": [
        {
          "internalType": "string",
          "name": "name",
          "type": "string"
        },
        {
          "internalType": "string",
          "name": "billId",
          "type": "string"
        },
        {
          "internalType": "string",
          "name": "houseAddress",
          "type": "string"
        },
        {
          "internalType": "uint256",
          "name": "energyUsed",
          "type": "uint256"
        },
        {
          "internalType": "string",
          "name": "dateTime",
          "type": "string"
        },
        {
          "internalType": "uint256",
          "name": "amountToPay",
          "type": "uint256"
        }
      ],
      "stateMutability": "view",
      "type": "function"
    },
    {
      "inputs": [
        {
          "internalType": "uint256",
          "name": "_index",
          "type": "uint256"
        }
      ],
      "name": "getEnergyBill",
      "outputs": [
        {
          "components": [
            {
              "internalType": "string",
              "name": "name",
              "type": "string"
            },
            {
              "internalType": "string",
              "name": "billId",
              "type": "string"
            },
            {
              "internalType": "string",
              "name": "houseAddress",
              "type": "string"
            },
            {
              "internalType": "uint256",
              "name": "energyUsed",
              "type": "uint256"
            },
            {
              "internalType": "string",
              "name": "dateTime",
              "type": "string"
            },
            {
              "internalType": "uint256",
              "name": "amountToPay",
              "type": "uint256"
            }
          ],
          "internalType": "struct SmartEnergy.EnergyBill",
          "name": "",
          "type": "tuple"
        }
      ],
      "stateMutability": "view",
      "type": "function"
    },
    {
      "inputs": [
        {
          "internalType": "string",
          "name": "_name",
          "type": "string"
        },
        {
          "internalType": "string",
          "name": "_billId",
          "type": "string"
        },
        {
          "internalType": "string",
          "name": "_houseAddress",
          "type": "string"
        },
        {
          "internalType": "uint256",
          "name": "_energyUsed",
          "type": "uint256"
        },
        {
          "internalType": "string",
          "name": "_dateTime",
          "type": "string"
        },
        {
          "internalType": "uint256",
          "name": "_amountToPay",
          "type": "uint256"
        }
      ],
      "name": "saveEnergyBill",
      "outputs": [],
      "stateMutability": "payable",
      "type": "function"
    },
    {
      "inputs": [
        {
          "internalType": "address",
          "name": "",
          "type": "address"
        }
      ],
      "name": "totalPayments",
      "outputs": [
        {
          "internalType": "uint256",
          "name": "",
          "type": "uint256"
        }
      ],
      "stateMutability": "view",
      "type": "function"
    }
  ],
  "bytecode": "0x608060405234801561001057600080fd5b5061109f806100206000396000f3fe60806040526004361061003f5760003560e01c8063600e132014610044578063636d582614610086578063cd4700fc146100c3578063da14f42714610100575b600080fd5b34801561005057600080fd5b5061006b60048036038101906100669190610b04565b61011c565b60405161007d96959493929190610cdb565b60405180910390f35b34801561009257600080fd5b506100ad60048036038101906100a89190610b04565b610388565b6040516100ba9190610d98565b60405180910390f35b3480156100cf57600080fd5b506100ea60048036038101906100e591906109f2565b61068d565b6040516100f79190610dba565b60405180910390f35b61011a60048036038101906101159190610a1b565b6106a5565b005b6000818154811061012c57600080fd5b906000526020600020906006020160009150905080600001805461014f90610f6b565b80601f016020809104026020016040519081016040528092919081815260200182805461017b90610f6b565b80156101c85780601f1061019d576101008083540402835291602001916101c8565b820191906000526020600020905b8154815290600101906020018083116101ab57829003601f168201915b5050505050908060010180546101dd90610f6b565b80601f016020809104026020016040519081016040528092919081815260200182805461020990610f6b565b80156102565780601f1061022b57610100808354040283529160200191610256565b820191906000526020600020905b81548152906001019060200180831161023957829003601f168201915b50505050509080600201805461026b90610f6b565b80601f016020809104026020016040519081016040528092919081815260200182805461029790610f6b565b80156102e45780601f106102b9576101008083540402835291602001916102e4565b820191906000526020600020905b8154815290600101906020018083116102c757829003601f168201915b5050505050908060030154908060040180546102ff90610f6b565b80601f016020809104026020016040519081016040528092919081815260200182805461032b90610f6b565b80156103785780601f1061034d57610100808354040283529160200191610378565b820191906000526020600020905b81548152906001019060200180831161035b57829003601f168201915b5050505050908060050154905086565b610390610887565b60008054905082106103d7576040517f08c379a00000000000000000000000000000000000000000000000000000000081526004016103ce90610d78565b60405180910390fd5b60008281548110610411577f4e487b7100000000000000000000000000000000000000000000000000000000600052603260045260246000fd5b90600052602060002090600602016040518060c001604052908160008201805461043a90610f6b565b80601f016020809104026020016040519081016040528092919081815260200182805461046690610f6b565b80156104b35780601f10610488576101008083540402835291602001916104b3565b820191906000526020600020905b81548152906001019060200180831161049657829003601f168201915b505050505081526020016001820180546104cc90610f6b565b80601f01602080910402602001604051908101604052809291908181526020018280546104f890610f6b565b80156105455780601f1061051a57610100808354040283529160200191610545565b820191906000526020600020905b81548152906001019060200180831161052857829003601f168201915b5050505050815260200160028201805461055e90610f6b565b80601f016020809104026020016040519081016040528092919081815260200182805461058a90610f6b565b80156105d75780601f106105ac576101008083540402835291602001916105d7565b820191906000526020600020905b8154815290600101906020018083116105ba57829003601f168201915b50505050508152602001600382015481526020016004820180546105fa90610f6b565b80601f016020809104026020016040519081016040528092919081815260200182805461062690610f6b565b80156106735780601f1061064857610100808354040283529160200191610673565b820191906000526020600020905b81548152906001019060200180831161065657829003601f168201915b505050505081526020016005820154815250509050919050565b60016020528060005260406000206000915090505481565b8034146106e7576040517f08c379a00000000000000000000000000000000000000000000000000000000081526004016106de90610d58565b60405180910390fd5b60006040518060c00160405280888152602001878152602001868152602001858152602001848152602001838152509080600181540180825580915050600190039060005260206000209060060201600090919091909150600082015181600001908051906020019061075b9291906108bd565b5060208201518160010190805190602001906107789291906108bd565b5060408201518160020190805190602001906107959291906108bd565b506060820151816003015560808201518160040190805190602001906107bc9291906108bd565b5060a08201518160050155505034600160003373ffffffffffffffffffffffffffffffffffffffff1673ffffffffffffffffffffffffffffffffffffffff16815260200190815260200160002060008282546108189190610e63565b925050819055503373ffffffffffffffffffffffffffffffffffffffff1660016000805490506108489190610eb9565b7f1160551d75c5991b99a017ccd357dc5f0c5d58b80138b93fc1867219af42889f346040516108779190610dba565b60405180910390a3505050505050565b6040518060c001604052806060815260200160608152602001606081526020016000815260200160608152602001600081525090565b8280546108c990610f6b565b90600052602060002090601f0160209004810192826108eb5760008555610932565b82601f1061090457805160ff1916838001178555610932565b82800160010185558215610932579182015b82811115610931578251825591602001919060010190610916565b5b50905061093f9190610943565b5090565b5b8082111561095c576000816000905550600101610944565b5090565b600061097361096e84610e06565b610dd5565b90508281526020810184848401111561098b57600080fd5b610996848285610f29565b509392505050565b6000813590506109ad8161103b565b92915050565b600082601f8301126109c457600080fd5b81356109d4848260208601610960565b91505092915050565b6000813590506109ec81611052565b92915050565b600060208284031215610a0457600080fd5b6000610a128482850161099e565b91505092915050565b60008060008060008060c08789031215610a3457600080fd5b600087013567ffffffffffffffff811115610a4e57600080fd5b610a5a89828a016109b3565b965050602087013567ffffffffffffffff811115610a7757600080fd5b610a8389828a016109b3565b955050604087013567ffffffffffffffff811115610aa057600080fd5b610aac89828a016109b3565b9450506060610abd89828a016109dd565b935050608087013567ffffffffffffffff811115610ada57600080fd5b610ae689828a016109b3565b92505060a0610af789828a016109dd565b9150509295509295509295565b600060208284031215610b1657600080fd5b6000610b24848285016109dd565b91505092915050565b6000610b3882610e36565b610b428185610e41565b9350610b52818560208601610f38565b610b5b8161102a565b840191505092915050565b6000610b7182610e36565b610b7b8185610e52565b9350610b8b818560208601610f38565b610b948161102a565b840191505092915050565b6000610bac601883610e52565b91507f496e636f7272656374207061796d656e7420616d6f756e7400000000000000006000830152602082019050919050565b6000610bec601283610e52565b91507f496e76616c69642062696c6c20696e64657800000000000000000000000000006000830152602082019050919050565b600060c0830160008301518482036000860152610c3c8282610b2d565b91505060208301518482036020860152610c568282610b2d565b91505060408301518482036040860152610c708282610b2d565b9150506060830151610c856060860182610cbd565b5060808301518482036080860152610c9d8282610b2d565b91505060a0830151610cb260a0860182610cbd565b508091505092915050565b610cc681610f1f565b82525050565b610cd581610f1f565b82525050565b600060c0820190508181036000830152610cf58189610b66565b90508181036020830152610d098188610b66565b90508181036040830152610d1d8187610b66565b9050610d2c6060830186610ccc565b8181036080830152610d3e8185610b66565b9050610d4d60a0830184610ccc565b979650505050505050565b60006020820190508181036000830152610d7181610b9f565b9050919050565b60006020820190508181036000830152610d9181610bdf565b9050919050565b60006020820190508181036000830152610db28184610c1f565b905092915050565b6000602082019050610dcf6000830184610ccc565b92915050565b6000604051905081810181811067ffffffffffffffff82111715610dfc57610dfb610ffb565b5b8060405250919050565b600067ffffffffffffffff821115610e2157610e20610ffb565b5b601f19601f8301169050602081019050919050565b600081519050919050565b600082825260208201905092915050565b600082825260208201905092915050565b6000610e6e82610f1f565b9150610e7983610f1f565b9250827fffffffffffffffffffffffffffffffffffffffffffffffffffffffffffffffff03821115610eae57610ead610f9d565b5b828201905092915050565b6000610ec482610f1f565b9150610ecf83610f1f565b925082821015610ee257610ee1610f9d565b5b828203905092915050565b6000610ef882610eff565b9050919050565b600073ffffffffffffffffffffffffffffffffffffffff82169050919050565b6000819050919050565b82818337600083830152505050565b60005b83811015610f56578082015181840152602081019050610f3b565b83811115610f65576000848401525b50505050565b60006002820490506001821680610f8357607f821691505b60208210811415610f9757610f96610fcc565b5b50919050565b7f4e487b7100000000000000000000000000000000000000000000000000000000600052601160045260246000fd5b7f4e487b7100000000000000000000000000000000000000000000000000000000600052602260045260246000fd5b7f4e487b7100000000000000000000000000000000000000000000000000000000600052604160045260246000fd5b6000601f19601f8301169050919050565b61104481610eed565b811461104f57600080fd5b50565b61105b81610f1f565b811461106657600080fd5b5056fea26469706673582212201ec064923a524fd59258c06b61a0a2934cd38a9af1b123a2cec1f1e3edb5f42264736f6c63430008000033",
  "linkReferences": {},
  "deployedLinkReferences": {}
}